:20D0000038B50D4604460EF0F3FB07482168016061684160A16881600EF0AEFD0EF0A3FCC7
:0CD0200028460EF035F838BD58480020B6
:20D02C002DE9F843099D002600274FF6FF7835F8174044451CBF761CF6B27F1C062FF6DB21
:20D04C0000270DE00CF1010C5FFA8CFCE646B64505DA35F8179035F81EE0F145F2D1E7B22E
:20D06C00B74208DA35F81740444504D0A14202D37C1CA446E8E7B7420DD176B1884202D045
:20D08C004BB1994207D3089811460EF0B3FF47F6FF71884201DB012000E00020BDE8F2839E
:20D0AC002DE9F843DFF88C0CDFF88C9C017899F80000884200F0868000204FF4907301E094
:20D0CC00401CC0B288427DDAD9F8042003FB002808F104063278002AF2D1DFF8601C0968DC
:20D0EC00B0700122327001EB8011002208F16104727001206071E072B280F280307388F855
:20D10C00392008F18E007261327672830270E277002301F12602FF25937508F1E8078023F4
:20D12C00E37400236375A37615707B76BB76FB763B77FB833B8488F80B31037108F1E30065
:20D14C000370437008F587703B607B60BB723B733B727B73038043808380C38047F2305078
:20D16C0008600B714B718D7193729373D373137453749374D374FF22042108F177000EF064
:20D18C007DFA25706570A570E5701F2020710020DFF87C1C421800EB0803527883F8F9202B
:20D1AC00401C0828F6DB0020387499F80000401C89F80000C0B2012804BFB07889F80200C3
:20D1CC00404600E00020BDE8F28310B5DFF8404C0821601C0EF051FA607840F01F00607096
:20D1EC0010BD70B5044609200EF000FFE8B100F0A9F800F03CF806F8010B04F1F901DFF8A3
:20D20C00140C0078082818BF0E2030700822701C06F004FA94F8920008B100F01DFF07F011
:20D22C0003FF00F042F89847012070BD70B5044609200EF0DBFEC8B100F084F800F017F836
:20D24C0030700822092006F8010F04F1F901701C06F0E4F994F8920008B100F0FDFE07F0BA
:20D26C00E3FE00F022F8984700F03FF870BD0A30C0B2E880002105F108062960297169714E
:20D28C000320704738B5044601200EF0AFFE58B100F02FF8122000F023F807F0C5FE00F09E
:20D2AC0004F8984700F021F832BDDFF8443D1B69DB6C0246A06E2946704738B50446012098
:20D2CC000EF094FE58B100F014F8132000F008F807F0AAFEFFF7E9FF984700F006F832BD51
:20D2EC0003F8010F20460EF07DBE0020E08301207047A0F10905002028602871687105F16E
:20D30C0008030620E8800122032018700321704770B5044618200EF069FE002811D000F0BA
:20D32C0011F800F061F80F2000F035F810B1182200F094FE07F078FE00F025F89847FFF777
:20D34C00D4FF70BDA0F1090594F8920000B10420704770B5044618200EF048FE002811D084
:20D36C00FFF7F0FF00F040F8102000F014F810B1182200F073FE07F057FE00F004F89847F5
:20D38C00FFF7B3FF70BDDFF8EC3C1B69DB6C024630682946704703F8010F308C5870308C91
:20D3AC00000A9870308CD870308C000A1871708C5871708C000A9871B08CD871B08C59729C
:20D3CC00000A18729972FF20187358739873D873187458749874D874187558759875D87573
:20D3EC00D97294F8920070471930C0B2E880002105F108032960297169710320187004F11F
:20D40C006806704770B5044603200EF0EFFD98B3A51DDFF828192A780968A0F1090694F8FB
:20D42C00920001EB821100B10420001DC0B2F080002206F108033260327172710320187014
:20D44C00112003F8010F01F12400017859704078987094F8920010B1032200F0FFFD07F085
:20D46C00E3FDDFF8103C1B69DB6C0246A06E3146984700202883012070BDF8B505460E46C1
:20D48C00DFF8F44BDFF8687B08E0007A03281CBF481C20703969A86E496D88473969A86E5F
:20D4AC00096E8847217810B10279032AEDD0DFF8CC0B00781C2814DA99B1DFF8C40B00789B
:20D4CC00814205D2012E0CD1DFF8B80B007840B1A879ADF80000ADF8021000F076F800209C
:20D4EC002070F1BD2DE9F8430446DFF85008A1790068DFF8FC7A00EB811600F0EAFB80462C
:20D50C00002007F003FEB079DFF86C6B0DF02CF9A06E00B306E0007A00F051F83969A06EE4
:20D52C00496D88473969A06E096E88470028F2D13969A06E496E8847054606E0287A00F080
:20D54C003EF828460DF0EEFE2D68002DF6D13969A06E096D8847206FA0B13969096E8847EC
:20D56C000546A946D9F8080020B10DF0DBFE0020C9F80800D9F80090A945F3D13969206FB8
:20D58C00096D8847DFF8F40A00781C2808DA307840B1A179ADF80010ADF8020000F015F8BB
:20D5AC000020307020460EF019FD20460EF012FDDFF8D41A096840468847BDE8F1830328E3
:20D5CC0002D03078401C307070470DF1020200A901200BF041B970B5044600F07AFB04F188
:20D5EC007601FF234A79521E4A71D2B20AB94B7008E0002215197735521C6E782E70032A93
:20D60C00F8DB0B7100220A70BDE87040DFF8781A0968084738B50446DFF8700A00680D4652
:20D62C008047002204F176010A704D704A790AB901224A71BDE83440E8E72DE9F04705466E
:20D64C000C464FF49078DFF848AA0027012624E006EB0509DAF80400715D19F8012C08FB22
:20D66C00010108FB02000968006849684068896880680EF0ABFC01280ED119F8010C715DF3
:20D68C00484009F8010C3746715D4840705519F8011C484009F8010C761CA642D8DBFCB2B1
:20D6AC00002CD2D1BDE8F0872DE9FE4F0446DFF88C0600688946A17900EB811A206847684F
:20D6CC00B86849460EF082FC002840F0CE802068016948460EF076FC04F180068046307894
:20D6EC00002804F12E0540F6C41B68D0218970880EF080FC02903078029902280CBFBAF8E9
:20D70C002A00A888484301900BFB00F00090206800990069091848460EF058FC00284ED030
:20D72C0000983289A8EB00010BFB02F3B1FBF3F003FB101101B1401C02FB00F12289029B09
:20D74C009A1880186081F2880198101801EB00093078012844D104F1840120460EF02EFC74
:20D76C007089E189608400202077E08360890818A081A9883089884202BFB1892A899142DD
:20D78C0002BF7189EA88914208D0B1890909009142087389A17900200AF0E6FFA888AAF897
:20D7AC002A00307928703089A8807089E880B089288120460EF0FEFB0220307010E0A8888F
:20D7CC000BFB00F1B8FBF1F290B201FB128109B1401C80B2218941186181A98801FB00F98C
:20D7EC00206801690BFB0911B9600278802A06D1C160A9883A69091F0BFB01F151610178B7
:20D80C0040292BD1618A01FB09F14FF4C872B1FBF2F1491CC4F818906161BA68511AB96079
:20D82C006269DAF82C1001EB42013A695161DFF8641832780968022A07D1A2792E7801EB60
:20D84C00421253690BFB06335361A279DFF8483801EB4211AA880BFB0232CA61B96881606F
:20D86C00E87AA872204600F01DFB6189A0890EF0C1FBAAF82800E18981423CBF0120AAF830
:20D88C002800BDE8F78F2DE9FE4F0EF08FFB4FF0000900F6C4140026DFF80058DFF89874F0
:20D8AC00DFF890844FF4907A11E078680AFB0600417951B12A68817909F8021009F10101F1
:20D8CC005FFA81F92146FFF7EFFE761CF6B298F800008642E9DB787881451CBF822000F0A6
:20D8EC00C1FB7878012812D1002601E0761CF6B298F80000864207DA78680AFB0600417945
:20D90C000029F3D08079A0E0822000F0ABFB79782868FFF792FE29687B680A780AFB023228
:20D92C00002012685468A668012202E0521C6046D2B24A4500F1010C07DA545C0AFB04347F
:20D94C0024686468A468A642F0D0C0B200281ABF5FFA8CF000280B78DFF8E08312D00B781D
:20D96C0001220DE0565CD8F800E00EEB86140EEB831E248DBEF828E0744538BF3346521CF6
:20D98C008242EFDBDFF8184723704FF6FF7000F05EF801900026786821780AFB010040F6BE
:20D9AC00C41100684068029001984008484300901AE0786821780AFB010001680A78802ADA
:20D9CC0003D1DBF81030009A5A610978402909D1DFF8C0168079096801EB4010009901F559
:20D9EC00A061C161761CF6B24E452DDA28682178305C8142F6D07A68D8F8001001EB8011A7
:20DA0C000AFB00F08318DB89098D4FEA530C8C4502D2591A8945E5DA8058D0F804B0029A43
:20DA2C000198DBF80810926800EBD070401040F6C413A1F6C41103FB00200EF0C7FA002863
:20DA4C00B7D02868305C20702078BDE8FE8FF0B54FF6FF710C460023B74A03E0A64298BFCB
:20DA6C0034465B1CB34D2D78DBB2AB4216D255684FF4907606FB03556E79002EF1D005F177
:20DA8C0080068C42377804D1002F0CBF6C8E3489E7E7002F14BF36896E8EDFE7A04288BF77
:20DAAC002046F0BD2DE9F84304468846164600270FE02A46414605F0B1FD3846471CC3B27C
:20DACC0003B101232A46494620460EF06BFAA844761BB6B276B11C2EACBF1B25F5B2284684
:20DAEC000EF05CFA5FEA0009E3D181200EF052FA072000E00020BDE8F2832DE9F04D8E4F64
:20DB0C00DFF8A065DFF8A0A50C46154679684FF4907282B002FB0018307801289B4602D063
:20DB2C00022830D068E0B068BBF1020F04D100F070F80020B06029E07388B188EA18914223
:20DB4C0005DA00F066F80020B0608B2052E02A462146181805F062FD70882818708080B2CA
:20DB6C00B288904248D198F87400802817BF81287F209AF80010401A00F043F80020B08033
:20DB8C007080022033E0BBF1020F35D1042DB8BF8C202FDB21786078091D41EA0020DFF87A
:20DBAC00DC14B08080B20978814238BF8A2021D3A84238BF8B201DD30EF0E8F9B060C0B152
:20DBCC002A46214605F02AFDB28895420BD198F87400802817BF81287F209AF80010401A93
:20DBEC0000F00FF808E07088281870800120307002E081200EF0CEF92046BDE8F64D0DF0BE
:20DC0C0091BB40B200905B46B168B878D2B20DF0B1BB0021B1807180022131700DF082BB12
:20DC2C002DE9F84304462068007840284FD1E08B00284CD0DFF874040078012847D107F007
:20DC4C00E3F800F046F805460EF0B0F9618E40F6C418891C08FB0109DFF834242068A17939
:20DC6C009278476891422CD1B86849460EF0AEF948B30EF087F9064640F202400EF07EF90D
:20DC8C00304607F043FA316948460EF09BF9618E08FB01F2B0FBF2F0228980B28218628148
:20DCAC0048432268126908FB0020B86004F1380041780170204600F0F5F830460DF0EAF89E
:20DCCC0001E00069B8602846BDE8F4439EE4BDE8F183DFF8B8030068004770B50446A07928
:20DCEC000EF048F920BB1548A179006800EB8115FFF7EFFF06466879012803D1A0790AF07D
:20DD0C001AFE07E0287928B901202871122120460EF02CF9687980F001006871AB1D28687D
:20DD2C0042082146DFF888030CF08AFD30466BE470BD0000BC4C0020B04C0020144800208F
:20DD4C0030B587B040F60200ADF800000020ADF8020001900290ADF80C0001208DF80D0070
:20DD6C000020ADF80E00D34CD34D2088D34A1278ADF8100002EB4202E86A8168096851183B
:20DD8C00B1F80110ADF81210994940680969059000A8C9698847012807BFBDF80200B0F571
:20DDAC00806F892000F05EF9E868C54A41881278114321800078BC49800643BFC14800685B
:20DDCC00400A0020087007B030BD10B582B004461020ADF8000004EB4401B748C06A806856
:20DDEC00006808188249B0F801000969ADF8020000A889698847B148047013BDAE48AF496E
:20DE0C00C06A80680978006801EB410108567047D04E0020B84C002030B50A7902F01F02DB
:20DE2C000A71002280F83A200023545C24FA03F5EC070BD590F83A502D1803EBC20485F823
:20DE4C003C4090F83A40641C80F83A405B1C082BEBDB521C052AE7DB30BD10B500F138021A
:20DE6C005378D47801FB0431252391FBF3F3252404FB131111700023117800E05B1C947898
:20DE8C00DBB2A34206D21C1894F83C40A142F5D1084610BD91FBF4F204FB1211081890F8F0
:20DEAC003C0010BD70B5044604F1380004F18E0601784170608921890EF09CF805463078E6
:20DECC00012801BF70882189491C884206D104F161012046FFF7A0FF0020307029462046BE
:20DEEC00FFF7BBFF21684968887370BD2DE9F44F674E8046707800280D4658D0B8F1800F6D
:20DF0C0055D17148817C012914BF0429012707D000294CD1007D022818BF032847D10027C2
:20DF2C000024DFF8A891DFF8A8A1DFF8A8B11DE09DF800108A4202BF01792A78914213D14F
:20DF4C0041796A78914202BF8179AA7891420BD1C179EA78914202BF017A2A79914202BFD8
:20DF6C00407A6979884220D0641CE4B29BF8000084421CDADAF8000000EB841170684FF46D
:20DF8C00907202FB04004279002AEDD0006800784045E9D101F13000002F0278C8D13431E8
:20DFAC0048460DF0DFFF1028DEDA012000E00020BDE8F28F38B500F1F103474C1D7A6D0745
:20DFCC000AD5434B85791B6803EB851303F8241F5A70FFF717FA02E01A700DF0BFFF30B9A2
:20DFEC002078BDE834404FF4804105F014BC31BD2C4F002070B5044602200DF0F7FF50B38B
:20E00C00FFF7A0F9C01CC0B2E880002105F1080329602971697103201870022003F8010FB8
:20E02C0094F80C01587094F8920010B1022200F015F806F0F9FF0F4B1B69DB6C04F16806FD
:20E04C00024630682946984704F10E00002101820088F082012070BD334609220321204669
:20E06C000DF0C0BF80B50DF095FF1C490020087001BD00002C4F0020BA4C00200848002066
:20E08C00874C0020884C0020604800205C480020B04C002084480020F0DDFFFF18480020AE
:20E0AC00B5480020FC460020C04C0020BB4C0020E7DC0000944C0020C8C70100B94C00200A
:20E0CC000948002080130050EC4900208C4A002014480020BC4C0020844C0020B84C0020DD
:20E0EC002DE9F84FDFF82C4BDFF82C5B2070072100206861DFF8240B01700D2141804FF4C1
:20E10C0004718180DFF89C0BDFF89C1BA9618A7E0270FF2ACB7E437008BFFF2B0E7F867054
:20E12C004F7FC77091F81EC080F804C0C97F417116D1FF2E08BFFF2F12D1BCF1FF0F08BFC3
:20E14C00FF290DD1DFF8641B0A7802704A7842708A788270CA78C2700A790271497941711D
:20E16C00DFF84C1B0278DFF8288CDFF8287CDFF844EB0A7042784A7082788A70C278CA7079
:20E18C0002790A714079DFF8582C4871FF21DFF8280B017041708170C17001714171101DF1
:20E1AC00017141718171C17101724172002101708172A0218181032181730721C173002108
:20E1CC00017428214182012101750021817502F15A0100224A7001220A7042750020DFF88E
:20E1EC00781B0880D8F82C30DFF8AC1B58780870197839709A782A709E683679761E8EF831
:20E20C000060DB78DFF8946B6B704FF4967333801B261B2392FBF3F306FB132202B1012291
:20E22C00D218504328814FF0180A881C0AFB00F080B20DF065FCDFF8AC6BB060002800F00C
:20E24C009C803878002800F09B804FF49071484380B20DF055FCDFF8909BC9F8040008B9DC
:20E26C00B06888E0387880010DF04AFCE86020B900F0D8F8D9F804007DE038780DF040FCA2
:20E28C00286128B900F0CEF800F0CFF8E86872E038780AFB00F00DF033FCDFF850ABCAF894
:20E2AC00000038B900F0BEF800F0BFF800F0B7F8286960E03878DFF838BB40010DF020FCD0
:20E2CC00CBF8000050B900F0ADF800F0AEF800F0A6F800F09DF8DAF800004CE03878000179
:20E2EC000DF00EFCDFF8D81B086060B900F09AF800F09BF800F093F800F08AF800F08BF85B
:20E30C00DBF8000037E0387800010DF0F9FBDFF8C01B086080B900F085F800F086F800F047
:20E32C007EF800F075F800F076F8DBF800000DF0D9FBDFF88C0B1DE03878302148430DF008
:20E34C00DFFBDFF8901B0860D0B900F06BF800F06CF800F064F800F05BF800F05CF8DBF817
:20E36C0000000DF0BFFBDFF8580B00680DF0BAFBDFF85C0B00680DF0B5FB4FF4804142E00D
:20E38C0000F0FFF9074606F018FE0DF0E3FDDFF8480B0069006880470DF0D8FD0DF0D2FDF3
:20E3AC00DFF8380B002101600160C160C16006F051FC0DF0EBFADFF8281B40F2FF700860CA
:20E3CC000DF0F4FD06460DF0F1FD864208BF0DF0B5FDD8F80C00697800880843DFF8041B48
:20E3EC0008803846DFF8CC1C096888470C21DFF8C80C0DF09FFD207800210DF0C3F800F03A
:20E40C009BF84FF400512078BDE8F44F05F003BA28690DF067BBDAF800000DF063BBE868AA
:20E42C000DF060BBB0680DF05DBBD9F804000DF059BB10B50C46E00786B013D50DF0A2FDED
:20E44C0038B100218160DFF8A00A0068010018BF8047DFF8C007007800210DF093F884F00A
:20E46C0001005DE0A00707D500F05CF83C200DF05DFD84F0020053E06107DFF89C0723D555
:20E48C00DFF8642901795268C0684FF4907303FB012200EB8110911D12F82C3F0493538937
:20E4AC001B0903938B8B0293D2885208019200F134020092012290F83030097800200DF042
:20E4CC0035FD84F004002BE0210607D500F02AF83B200DF02BFD84F0800021E0A10508D56E
:20E4EC00DFF8D80B016841F00041016084F4007016E0610504D50DF0A3FB84F480600FE01B
:20E50C00610405D581200DF045FD84F4804007E0A10443BF4FF0FF31416184F40050002011
:20E52C0006B010BD0020049003900290019000900146002301227047F8B506F065FCDFF833
:20E54C00800BDFF8A4680068DFF8487880470446002006F0DBFD40F201400DF00FFDDFF8F0
:20E56C0078090069C06880470DF0F0FCDFF82008DFF8501BC06A8068407908700025FFF72E
:20E58C00DFFBDFF8440B0DF0CDFC0DF0C7FC0DF0C1FCDFF8380B002101700171417181716D
:20E5AC00C171017241720022DFF8340800F10E010A70A0224A8007224A7103220A71002216
:20E5CC000A738A7200F8592F0122CA720021427081700BE070684FF4907101FB0500417951
:20E5EC00012908BFFEF77EFF6D1CEDB238788542F0DB0DF08BFC0CF0C3FBFEF7E6FDDFF855
:20E60C00D01A00200870DFF8CC1A08700120DFF8C81A08700020DFF8C41A08700120DFF8A0
:20E62C00C01A08700020DFF8BC1A0870DFF8B81A0870DFF8B81A0880DFF8B41A087006F0D2
:20E64C001EFC00F099F80020F2BD2DE9F0411446DFF8405708B12A780270DFF88C8711B1BC
:20E66C0098F801000870002C3DD0002600271CE0C9B2DBB2085502F1300001791955591C1E
:20E68C00427900F033F8827900F030F8C27900F02DF8027A00F02AF8427A00F027F8007864
:20E6AC00C9B24E1C08557F1CFFB2287887421ADA38460DF05FFC0028F5D1D8F804004FF488
:20E6CC009071F6B201FB0700DFF84C15C968375501EB871200680078711C4B1C80280CBFC1
:20E6EC0000200120C4E70020BDE8F081C9B20A55491C704738B504460D460DF03BFC48B937
:20E70C00DFF81405C068A10108580A21B0FBF1F02880002032BD38B505460C460DF02AFCB8
:20E72C0048BBDFF8D009DFF8F0244068D26800F050F8811D0B7802EB83153CB1CB8D898D14
:20E74C005B1C4900E20059438A4201D2122032BD0A216143296090F8920058B100F011F83B
:20E76C0004460020687128684108A8790BF0CDFF00F002F8002032BDDFF838190968204691
:20E78C000847DFF83C090068004738B50C00054601D1122032BD0DF0EDFBB0B900F016F8D0
:20E7AC0001680978402901D00C2032BD00210A5D431A491C102983F8E220F8DB012180F8A1
:20E7CC00E4100521FEF726FF002032BDDFF8240940684FF4907101FB0500704710B5044633
:20E7EC000DF0C8FBA0B900F0C8FA402901D00C2010BD00F1F0010A78012A03D106220A7703
:20E80C00022102E006224A700D21FEF703FF002010BD10B504460DF0ADFBF0B900F02EFC7C
:20E82C0000F1F8010A78022A06D1817900F1F902002009F0DAFF0FE002681278802A08BF31
:20E84C00082107D0402A07D14978090701D4112010BD0E210DF08AFB002010BD10B504005F
:20E86C0001D1122010BDDFF88005407808B10C2010BDFEF7AAFC2078DFF87C1800F01F0048
:20E88C0020704A7810404870002010BD38B50D00044606D0DFF8F804C06A806800798442E7
:20E8AC0001D3122032BD06F0BFFB032803D02046FFF78BFA02E0DFF80C08047001202870CE
:20E8CC00002032BDDFF8C814C96A89680979884201D312207047DFF8DC1308700020704728
:20E8EC0010B5140019D011B1012908D015E0FFF785FA10F1800F20700DD1302010BDDFF82A
:20E90C009004C06A80680168007900EB4000401810F8030C2070002010BD122010BD2DE937
:20E92C00F0410C0082B0074690461D4627D0BA4E3078404528D338460DF01CFB002847D1DD
:20E94C0000F0C0FA01FB070708F058F81B2298FBF2F21B2303FB128303B101233189101870
:20E96C001818814204DA01200DF0CCFA07202FE030781C2814DA002D18BF012D01D0122091
:20E98C0026E0B8F11C0F04DB8A200DF003FB30201EE02B464246214638460DF003FB13E0F3
:20E9AC00424621463846FFF77DF888B920460CF0B9FCB879ADF800000DF102020120ADF87D
:20E9CC00020000A909F048FF3846FFF729F90020BDE8F68170B50646282E01DB122070BD6C
:20E9EC00DFF80C47207808B1212070BD06F00CFADFF8E454286980688047700000F66211FE
:20EA0C0089B200200DF07AFADFF8F00640F6070101804060002141808160017B01F0600161
:20EA2C000173417B01F0F00141F00201417302218173DFF8CC16016100214161C17B01F0AE
:20EA4C00F00141F00101C1730C212170296989698847002070BD2DE9F04104460D46282CBC
:20EA6C00B8BF262D16460FDA002E18BF012E0DD0022E18BF032E09D0042E18BF052E05D048
:20EA8C00062E18BF072E01D012205BE0DFF8608698F8000008B1212054E006F0B5F9DFF8F6
:20EAAC006476DFF8641641F60A0038800022002078807F60B860387B00F060003873787B54
:20EACC0000F0F00040F00200787360006630B8738020F873DFF83406386179610280857006
:20EAEC0040F6C4124260C670027A02F0FE02027200224272C260C27A02F0F00242F00102F7
:20EB0C00C272002008800021DFF804068180C180047080214570867001726648DFF8B84316
:20EB2C000078FFF752F9092088F8000000222369DFF8E0055B680021984721698969384640
:20EB4C0088470020BDE8F08170B50446282C01DB122070BDDFF89855287808B1212070BD1B
:20EB6C0006F052F9DFF89C65DFF8AC15766041F609003080716100207080B0600022307B53
:20EB8C0000F060003073707B00F0F00040F00200707360006630B0738020F073DFF87C0522
:20EBAC00306102600F22027101224271DFF850258260552202734273827300220261C27B56
:20EBCC0002F0F00242F00102C2730020088048808880002280208871002088600021DFF8A8
:20EBEC0030054170FF218170047000218180C1808021B94C01720A20287000212369DFF8DC
:20EC0C0014055B6898472169896930468847002070BD0000844C0020084800208C4C0020C7
:20EC2C0070B5DFF8CC442078092818BF0A2801D0212070BD40F202400DF0A0F92078DFF832
:20EC4C00D01409280BD1DFF8C00400888880DFF874040078FFF7B9F80021002017E00A28B4
:20EC6C0017D1DFF8B424538810889688CB801D1875198D809279802A18BF812A0FBF7F229F
:20EC8C00DFF89C3493F90030D21A0A7201210DF031F90DF05BF90020207006F0F0F8002055
:20ECAC0070BD00006C4C0020B63F0050E81200507C4C0020854C0020744C002038B5DFF837
:20ECCC003044207808B1212032BD06F09DF8DFF83454DFF83424297B6D6001F0E00141F0A6
:20ECEC008501297341F60A00697B288001F0F00141F00201697300206621A97368808021DB
:20ED0C00E97340F6C410DFF80414A86029616A6148600123087A0B8000F0FE0008722523AC
:20ED2C00C87A8B7000F0F000002340F00100CB704B72CB60C87213800D2020700022664CD5
:20ED4C00DFF8E00323695B68114698472169896928468847002032BD984C002010B504468D
:20ED6C000DF008F940B900F008F880290CBF00211021FEF74FFC002010BDDFF878034068B3
:20ED8C004FF4907101FB04000168097870470000C8C70100BC4C00208B4C0020964C0020D1
:20EDAC0038B505460C460DF0E5F8B8B9FFF70EFD00F1F9010A78520703D40F220A750721FC
:20EDCC0009E0DFF86413C96801EB85110F2201F8242F4C701121FEF71DFC002032BD0000B5
:20EDEC00EC490020F44E0020B04C002080480020844800202DE9F04180460D4640F67B400F
:20EE0C00A91F164681423CBFB11F81421F4611D2AE420FD3B7F5FA7F0CDA069CA4F10A010A
:20EE2C0040F6774291423FBF781C71004843B0EBC40F01D3122040E040460DF09BF80028A4
:20EE4C003BD100F03FF801FB0800B749C96800F1770201EB881113792BB11378002B1CBF56
:20EE6C000F2B102B02D0527A012A01D13A2024E002681278402A05D190F8F920920758BF93
:20EE8C0011201AD500F182028D81CE810F824C820223937000239380838ED680DB1D1380C5
:20EEAC00178154810122CA7190F8F910890754BF00210F210DF05AF80020BDE8F081000071
:20EECC000C4F00208B4840684FF49071704700001C4F0020104F00202C4F0020101004402C
:20EEEC0000000460944C0020C44C0020F8B5804C2178092918BF0A2967D00B291CBF0C29A9
:20EF0C000D2962D0894DA97C002918BF012904D003291CBF022904290ED12A79002A18BFA2
:20EF2C00012A09D1032918BF022902D12B8AA02B77DB002847D0012873D1A87B012844D0E1
:20EF4C0000291CBF0129042912D179480078002867D068494978814201D10920F2BD5B484D
:20EF6C000278011D8020FEF7C1FF08B10B20F2BD01200BF01EFF286000260120A87305F0ED
:20EF8C0043FF0CF0B3FF6B48182101FB0607387B40F080003873A87C012807D026B90DF072
:20EFAC0005F800F5C87000E00020B860761C032EE9DB207828B9A97C5F48085C20700CF047
:20EFCC0091FF0020F2BDA87B08B92120F2BDFFF7D8FB06460CF082FF012804D00CF0D2FF96
:20EFEC002968884207D105F00FFF40F202400CF0C5FF012700E000270020A873286806F0AB
:20F00C0085F828460CF0E6FF207810B905F037FF02E00FB10CF066FF264909683046884764
:20F02C00CFE71220F2BD017841F08F010170C17841F02001C170017941F0C001017141792E
:20F04C0041F001014171817841F0300181700020704710B12749497801700020704770B53D
:20F06C0004460D4616460CF085FF30B900F006F800F58E7005704680002070BD1D484068AC
:20F08C004FF4907101FB040070472C4B10B1012803D00CE019800020704718881070188819
:20F0AC00000A507047209070AE20D070F3E712207047000060480020E84E002004000940D7
:20F0CC005C480020B94C00208C4A00209C4C0020864C0020BA4C0020874C0020884C00203E
:20F0EC00BB4C0020894C00208A4C0020BE4C0020B84C0020B04C0020D04E0020404E00209C
:20F10C0029417671284E0020204F0020A84E0020DC4E002002000080C44E0020844E002067
:20F12C00C04C00200100008008480020EC490020BC4C0020244C0020C0D90010984C0020EC
:20F14C00DFF88C1C0870704770B5DFF8884CDFF8885C20762878C0000CF0D2FCE06148B36E
:20F16C00287880000CF0CCFC0100616204D1E069BDE870400CF0B6BC4FF6FF7630460CF0CE
:20F18C007CF8E169002006E021F8306001EBC00300225A60401C2A789042F5DB052000F0B6
:20F1AC00AEF8207E01F0F7FFBDE87040DFF82C0C0AF0CCBE70BD38B50C46200418D5DFF8DC
:20F1CC00140C007E04F050FA05000ED02878B02808D1284600F00BF920B1297905F1080040
:20F1EC000AF084FE284604F0FCF984F4004032BD002032BD7CB504001D460CD0ADF8001051
:20F20C008DF80220019400A801F059FF060019D1C5B164890CB9022614E00C200CF070FCED
:20F22C0008B913260EE00021016084808560DFF8B01B0A6812B9086004E00A461168002952
:20F24C00FBD11060304676BD30B50D46DFF8901B0446086883B0002201E00246006890B122
:20F26C008388A342F9D10368002A0CBF0B6013600CF038FC00A9204601F06DFF10B90DB167
:20F28C00019929603EBD01203EBD70B558BB012927D1DFF8400BC16900230C2601E05B1CD5
:20F2AC00DBB2DFF8344B2478A34216DA31F833404FF6FF75AC42F2D0002400E0641C457EA2
:20F2CC00E4B2AC42EBD201EBC3056D6806FB04552D88002DF2D0012070BDBDE8704010782F
:20F2EC000DE0182070BD022070BD0022002803BFDFF8E00A407E08700222104670472DE917
:20F30C00F843DFF8D07A0446002078760C25F869DFF8C46A406805FB04F868B10CF0E2FB00
:20F32C000020002204E0F96901EBC001401C4A60C0B231788842F6D3307808FB00F080B20B
:20F34C000CF0DEFB5FEA000927D0307808FB00F20021484604F060F900200FE0516805FB22
:20F36C000CF34FF0000E23F801E059180CF1010CC1F808E0A445F1DBC144401C3178C0B2EC
:20F38C00884207D2F96901EBC0024FF0000CC2F80490EFE77C76002000E01320BDE8F28300
:20F3AC0001460020C90706D50FF20C03DFF8340D102204211EE7704700000000FDFD0000FA
:20F3CC000000000001460020C90704D5DFF8140D4089002138E77047DFF8041A096821B121
:20F3EC008A888242FAD188687047002070472DE9F04387B004460020ADF8100001208DF89D
:20F40C001200DFF8D059286A38B909F05DF90CF077FB0028286200F0E480182200212846BF
:20F42C0004F0FAF82079022800F1010804F108074FF6FF7917D006282CD008282FD00A28EA
:20F44C0032D00C2855D00E2800F08880102800F08A80122800F08C80162800F09080182831
:20F46C0000F09480BAE009F02FF92880294660880BF0FCFA00283988288804D0814228BFBA
:20F48C00014629809DE0814228BF014660880AF09BFCA3E004A9204600F0ADF87AE004A957
:20F4AC00204600F02FF975E000F0A0F8060050D0608805AB4A460B210AF0DCFC03006B60CB
:20F4CC0023D02079BDF81620039000953146BDF8140000F0A1F900F026FA060004D16088E4
:20F4EC0029460BF00DFB29E0162E686808BF00262BE000F07BF806002BD0608805AB4A46ED
:20F50C000D210AF0B7FC686020B93888ADF81000112643E02179BDF8162003910346BDF87D
:20F52C0014100291798801910095314600F0FBF9060006D1608829460BF0F0FA002840D133
:20F54C0029E0162E686808BF00260BF0EBFE0EB921E001263888ADF810001CE004A920463E
:20F56C0000F05EF916E004A9204600F0E3F911E00DF1120204A9204600F07EFA0AE00DF1FD
:20F58C00120204A9204600F0BFFA03E004A9204600F028FB064696B1162E12D060781428B9
:20F5AC000DD0207928702946BDF8100068802E7160880BF052FA10B14FF0010801E0162E19
:20F5CC000CD160882B465FFA88F216210AF0F2FB20B15FFA88F128460AF088FC20460AF009
:20F5EC0020FB9DF8120007B0BDE8F08338880DF1160101F07FBE2DE9FA4786B0044604F19F
:20F60C00080500F034FA05906A1D0DF1120000902B796988288801F03FFE002780464FF058
:20F62C00FF0AB8F1000F5BD009E0BDF810300B54BDF81000716892B2000A5054571C0598F5
:20F64C00BFB2401F87424BDA2079BDF8122003904FF000090598CDF80490C01F80B20290EC
:20F66C00414600F05CF9002802BF728B2889904214D1316AE86804F027F878B1706858B954
:20F68C0000F048F907210AF0F5FB706020B9069928880880112032E0B8F80A90BDF8122027
:20F6AC00698804AB404601F049FEB9F1000F8046B7D0706807F80090781C726880B24FEA9A
:20F6CC0029218154411C4A1C7068B8F1000F89B2ABD101F800A092B2706802F800A0571C33
:20F6EC00BFB247B1B8083080314660880BF0E2F928B1162003E00699288808800A2008B045
:20F70C00BDE8F0872DE9F04F89B0044604F1080005908A4606886088DFF8B85606F012FF25
:20F72C0007900027001FB84606904FF6FF7900E0761C0698B84257DB04A8009005980379FE
:20F74C004188421DB0B201F0A7FD5FEA000B4BD0BBF80A60BDF810209BF80810608801F089
:20F76C001EFD5FEA00083FD100F0DFF859460798001F00F050F805F11A0000902B6A00F080
:20F78C00D2F85FEA00082FD17FB9608800234A4609210AF06FFB686018B9AAF80060112015
:20F7AC0036E0688B801C688004E0698B6888891C88421AD1698B0698C919884214DB696890
:20F7CC00BBF80A007854BBF80A106A6800F049F968686A8B296ABFB2381803F01FFF688BA6
:20F7EC00C7194E45BFB2A3D157B1688897FBF0F02880294660880BF06DF948B1162007E0C5
:20F80C00B8F1000F08BF4FF00A08AAF80060404609B0BDE8F08F80B202900020019070477B
:20F82C002DE9F04F85B00D46044604F108066088DFF8A07506F086FE4FF0000BA0F1010860
:20F84C00A0F1010A16E039887A8B084612189245BCBFA8EB010179837B687A8B396AC01886
:20F86C0003F0DCFE3888798B081838800BF101001FFA80FBB0888345BCBF3888504537DAA1
:20F88C00306810F81B2000EB4B0004A9407802EB002080B201F02EFD01000BD14FF0010965
:20F8AC0000F02EF8786808B10BF03CFD484605B0BDE8F08F00F039F81FFA88F0FFF7ACFF9F
:20F8CC0007F11A0000903B6A00F02DF85FEA0009E6D178680028B6D100F01CF80F210AF0FA
:20F8EC00C9FA00287860AED100F00AF81120DEE7608839460BF020F90028D8D01620D6E794
:20F90C00306810F81B1000EB4B00407801EB002028807047608800234FF6FF72704706F148
:20F92C001A000090336A60887AE22079BDF81020039070472DE9F04786B08846044604F1D8
:20F94C00080900F094F8059009F1050204A8009099F80430B9F80210B9F8000001F09CFC7A
:20F96C000027BA4605460FE07268FF21B95480B272688154471C7068728B316ABFB238189E
:20F98C0003F04CFE708BC719BFB2BDB1BDF81020297A608801F003FC5FEA000A0BD1FFF7DF
:20F9AC00C4FF29460598801FFFF735FFFFF7B7FF5FEA000A10D06889A8F80000002F43D0F1
:20F9CC00708897FBF0F03080314660880BF0C3F8002843D0162041E07FB9FFF79BFF112160
:20F9EC000AF048FA706020B96889A8F80000112034E0708B001D708009E0708B7188021D3C
:20FA0C009142DDD10599891FC0198142D8DB7168688978546989726800F023F8BDF8102072
:20FA2C00B9F802100DF11203284601F087FC0546781C002DBFB297D07268BDF81210B95460
:20FA4C00BDF81210090A92E7B9F80000A8F80000BAF1000F08BF4FF00A0A504606B0BDE821
:20FA6C00F087781C80B2090A8154471C70476088DFF8606306F066BD2DE9F041044604F11A
:20FA8C00080784B00D463888904602A901F032FC06002FD0307A80060BD5BDF8080000F0A2
:20FAAC00A1F903000BD06088122231469847060021D1787A002814BF5220207901E00E264B
:20FACC0019E00190002000907B887A683988608800F0A0FA060007D1787A70B960880BF0EC
:20FAEC004BF850B116200CE0162E04D1002688F8006002E0012638882880787A00B100263B
:20FB0C00304604B0BDE8F0812DE9F843894690460121044604F1080660880AF0ABFA002786
:20FB2C0018B9142060700E205AE0308800A901F0E1FB05004FD0287A80060BD5BDF800006D
:20FB4C0000F050F9030015D06088122229469847070041D16588284600F006F9010006D1D3
:20FB6C004FF6FF7000F000F9010030D00D800022984D02E00E272FE0521C687ED2B2824285
:20FB8C0025D248680C2303FB02000388002BF3D10C22314603F042FD002088F800000C2264
:20FBAC003146284603F03AFDB2886088002317210AF060F9A86060B1B288B16803F02EFDD0
:20FBCC00608829460AF0DEFF48B1162008E0092702E0112700E001273088A9F800003846AB
:20FBEC00BDE8F2832DE9F04383B089460027044604F10805608800F0B7F85FEA00084AD02F
:20FC0C002878012843D14146284600F050F8A0B1D8F804501820019068880090AB88AA68CB
:20FC2C002988608800F0F6F90746162F02D10020A8602CE05FB3288827E000250EE001903A
:20FC4C0070880090B388B268608800F0E3F90746162F17D10020B0606D1CEDB25D48407ED2
:20FC6C00854214DAD8F804100C2202FB05121646318861B16B1C83421DBF908900281620D7
:20FC8C001820DCE7002FE7D03088A9F80000404600F07DF82FB960880AF081FF20B11620E2
:20FCAC0003E0162F08BF00273846BDE8FE832DE9F84F0C46002100250E464FF00C0B454852
:20FCCC000EE0994202BFBCF8027093B2BB4224D1BCF804305D19ADB29A18761C92B2F6B244
:20FCEC00437E9E420EDA63680BFB063CBCF8003043B10029E5D1BCF80450BCF80220194668
:20FD0C00AA18EAE7022E2CDB28004FF0000904D00BF0F0FA5FEA000801D1002022E0CA468F
:20FD2C0019E00BFB0A07B96859B1BA8809EB080003F074FCB88848441FFA80F9B8680BF062
:20FD4C00F1FABAF1000F04D00C220021384603F063FC0AF1010AB2456068E2DBC0F808803D
:20FD6C0085800120BDE8F28F1A4AD269002100E0491C194B1B78C9B2994206D232F8313076
:20FD8C008342F5D102EBC10070470020704770B5044600250BE0B06808B10BF0C3FA0C225A
:20FDAC000021304603F038FC002030806D1C0948407EEDB2854206D260680C2101FB0506D7
:20FDCC0030880028E7D14FF6FF70208070BD000037470020E047002078470020F500010044
:20FDEC009C48002080B5FFF7F7FA00B1806802BD30B583B00C78022C10D14C6825786478A7
:20FE0C0005EB0424A4B242F60215AC4206D102240194069C00940BF00AFA3EBD01203EBD4D
:20FE2C002DE9FE4F0D468046287AC00693461E464FF0000A0CD55846FFF7D4FF030000F011
:20FE4C00E4800A222946404698475FEA000A49D128780C9F0D9CDDF83890022816D100F033
:20FE6C0016F94FF42051401A012810D9801E3AD0401E14D0FD3876D0401E00F07D80401E39
:20FE8C006AD0401E6FD0401E00F09180A7E0002C2AD1E868017839800278416883E0002C3E
:20FEAC0022D1012038800021E868007830706889401C80B201F01EFA398860B10278921C5F
:20FECC0051183980418971704189090AB17002784168F01C68E0081D388004220021701C24
:20FEEC0003F09AFB93E0002C62D1E8680488042038803470200A70700DF10201204601F0DE
:20FF0C00F9F905001ED0EC68BDF802204FF6FF7800AB414601F012FA40B92B786A6895488F
:20FF2C00022106F09FFA08B9ADF80080207802280AD161680222301D03F070FB3888801C8C
:20FF4C00388001E0ADF80040BDF80000B070BDF80000000AF0705AE054BBE868016840469B
:20FF6C000BF049F902E01CBBE8680088022139803070000A70704AE0E86803F084FE82B21E
:20FF8C00A242B8BF4FF0070A41DB944208BF002206D009EB04019142B2BF4A46121B92B2BB
:20FFAC003A80E9686118304603F038FB2FE014B14FF00B0A2BE0E868072139800178317097
:20FFCC00417871704188B1704188090AF17001793171C1887171C088000AB07117E0584605
:14FFEC00FFF7FAF900281CBFD0F800C0BCF1000F0BD00F984F
:020000040001F9
:200000000290CDF8049000943B46324629464046E047824601E04FF00E0A5046BDE8FE8F84
:200020002DE9FE438046894617461E4602A9484601F066F905002CD0BDF80800FFF7D2F90B
:2000400000281CBFD0F804C0BCF1000F1FD00A980B9C0090019433463A4629464046E047E3
:20006000060017D1FE2C15D02878022812D100F014F842F6021188420CD13878797800EB5C
:20008000012292B24946404600F05EF802E00E2600E001263046BDE8FE83686801784078E4
:2000A00001EB002080B27047704700207047E0B58DF808200223120A8DF80920FE220192D9
:2000C0000022009202AAFFF7ABFF0EBD38B504462C480D46416A20460BF093F8800705D55F
:2000E00029462046BDE8344001F0A3B8012032BD984500207CB50129044605D0022922D121
:20010000012109F0BDFFF0B92046FFF733FE08B1FFF743FE01A800904FF6FF7502231A4A67
:200120002946012001F0BEF80BE0F068016820460BF0A9F8BDF8042000232946304601F008
:2001400003F90600F1D173BDF8B5104F04463878FF280D46164611D00A2003F033FA68B18B
:20016000B12101704480002141700171C580068101463878BDE8F44003F010BBF1BD00002C
:2001800044AD0100E047002058AD0100374700200A7802704A7842708A78C97802EB0121C8
:2001A000418070472DE9F0420C46062C84B0074615461E460CD1688800F0BBFD019008B9F4
:2001C000022037E0C068408828800198C78807E00C9A0B9901AB00F0F7FC5FEA000928D15B
:2001E00001990A980870DFF8100C0178491CC9B201B901210170142C0198017106D10198F7
:20020000408868800199C9682889088100962B46019802792146384600F00FF85FEA0009E0
:2002200004D101981E2100F0E9FD02E0019800F01CFD484604B0BDE8F0822DE9F0410446CD
:2002400084B00E4617469846172000F0FBFE050025D00A9A100003D04146281D904700E0B7
:200260000020010A2E70E9706F70A8700521001DADF80800ADF80010019500A9DFF8C40CDA
:2002800000780028204602D000F0DBF901E000F009F8040004D028460BF04AF800E0132456
:2002A0002046FDE010B50B88DFF89C2C0C2404FB0322303A536833B94B68536009895081D6
:2002C0001181002010BD162010BD80B5052000F019F858B9062000F015F838B9042000F008
:2002E00011F818B9072000F00DF808B1012002BDDFF8580C007800281CBFBDE8014000F0E3
:2003000025B802BDDFF8401C0C2202FB001110B5A1F1300484B06168A9B1DFF8282C12783B
:200320007AB1ADF80000019100A92089ADF80800608900F086F910B160680AF0F9FF002069
:200340006060012000E0002004B010BD2DE9F843DFF8FC4BDFF8F45B94F80090DFF8F48B34
:200360004E46D8F8000000EB06173878012811D1F86800281CBFC16800290BD0018891B9F3
:20038000407FFF2806D16221384600F0B4FBF96800204877761C2878F6B2864228BF002611
:2003A0004E45DED10646287886421AD2DFF8940B0078A0B1D8F8000000EB0617384600F0D6
:2003C00013F8010003D0384600F060FD09E0761C2878F6B2864226BF00202070267001209C
:2003E00000E00020BDE8F2832DE9F0410446DFF82C0CE56800886A8A84B0EE88B04238BFE7
:200400000646288A22B9811CB14206DA871C05E0811AB142B8BF871A00DB3746B8B200F0B3
:2004200011FE5FEA000839D06888ADF80000CDF80480ADF80870688A50B9288A08F8010B9F
:20044000BFB2000A08F8010BB7422CBFBF1E2F8AE868698ABFB209183A46404603F0E4F8F1
:20046000E08800A900F0EDF8060013D12888401E2880698A2A8A7918698289B2914204D3EE
:200480000021204600F002FD09E080B238B9FF20687704E040460AF04BFF00E0132630469F
:2004A00004B0BDE8F0812DE9F0470F4684B08146388800F03EFC06001CBFF468002C7AD038
:2004C000F088484577D12089002870D0401EDFF8508B227F208180B2D8F8001001EB02115B
:2004E000C988884203D16321304600F004FB606920BB78680178427801EB0225ADB23A8938
:20050000A91C91426FF0010A0BD151460AF0E4FE78603D813A46307A494600F067FA68B9C9
:200520004AE028460AF0ECFE60612583514678680AF0D2FE78603889801E38816069A0B389
:20054000638B3A89258BD1188D422CDBD8F8005094F81CE005EB0E156D888D4221DB79681F
:20056000181803F061F8608B39890818608380B2218B88421FD17088ADF8000000AA6069A7
:2005800001904946208BADF80800307A00F02EFA10B160690AF0CCFE00206061608320836C
:2005A00009E0052104E0042102E0092100E00621304600F09FFC012004B0BDE8F087F0B579
:2005C00085B004460D4616461F460A22002101A803F028F8ADF80C60AEB97888ADF804005E
:2005E000DFF8380A0088ADF80800F86858B1DFF8301A027F096801EB02114988ADF80610A6
:200600000089ADF80A0001AB0FF2093000902A4615212046FFF711FE040008BF002E09D148
:20062000012038700022002038710146384600F026FA03E017B1384600F017FB204605B0EB
:20064000F0BD70B50D460446288920B1DFF8CC190988814201D21B2070BD686804210AF06F
:200660003BFE0646288930702889000A70702888B0702888000AF0702889051D4FF6FE7099
:20068000844213D10C2002F09DFF01000CD0902008704C8002200871CD808E60DFF88409EB
:2006A000007803F07BF817E0132070BD3346AAB2002120460BF014FC010007D002280DD0BF
:2006C00007280FD012280BD01F280CD1DFF87408017809B1491E0170002070BD142070BDC7
:2006E000022070BD042070BDF8B5044600200D4660602879022826D1E888042823DBA968C3
:200700000A784B7802EB03268A78C978B6B202EB0127311D8142BFB215D1052F18BF042F18
:2007200007D0062F18BF072F03D0384600F001FB48B1268127806FF00301A8680AF0CCFDE6
:2007400060600020F2BD0120F2BD0B88037002220B881B0A43700B88012B06D14A8882704B
:2007600004224988090AC1700CE0022B0AD14A8882704A88120AC2708A88027106228988A8
:20078000090A417110467047022A1BDB0A784B7802EB032202800288012A05D18A78C978BE
:2007A00002EB012141800BE0022A09D18A78CB7802EB032242800A79497902EB012181800A
:2007C00000207047012070470A8802700A88120A42704A8882704A88120AC2708A8802719D
:2007E0008A88120A4271CA888271C988090AC17108207047082A18D10A784B7802EB0322EC
:20080000028011F8022F4B7802EB0322428011F8022F4B7802EB0322828011F8022F497879
:2008200002EB0121C180002070470120704705E0022A00D10EE00120704700BF0A8802704E
:200840000988090A417002207047022A00D101E0012070470A78497802EB012101800020C1
:20086000704780B54B8800F8013B04224B881B0A00F8013B0B8800F8013B0B881B0A00F8BC
:20088000013B0B8873B94B88022B04D1496803F04AFA082206E0032B04D10822091D02F04B
:2008A000C3FE0C22104602BD10B50446042A084627DB0178437801EB0321618010F8021F59
:2008C000437801EB03212180801C218899B96188022906D1082A14D1042103F00DFA606034
:2008E0000DE0032908BF0C2A0BD101460822201D02F09AFE03E0012908BF042A01D10020DA
:2009000010BD012010BD07E00A2A00D124E001207047000000BF00BF0A8802700A88120A24
:2009200042704A8882704A88120AC2708A8802718A88120A4271CA888271CA88120AC271D5
:200940000A8902720989090A41720A2070470A2A00D101E0012070470A784B7802EB032242
:20096000028011F8022F4B7802EB0322428011F8022F4B7802EB0322828011F8022F4B7816
:2009800002EB0322C28011F8022F497802EB012101810020704705E0042A00D113E00120A8
:2009A000704700BF0A8802700A88120A42704A8882704988090AC17004207047042A00D1AA
:2009C00001E0012070470A784B7802EB0322028011F8022F497802EB0121418000207047E3
:2009E000E0E7042A00D1EEE701207047F8B504460D461646102002F0E5FD070016D0A0202D
:200A000038707D80002078702EB10C223146381D02F00AFE04E00C220021381D02F002FEDC
:200A20003946204602F0BAFE0020F2BD0120F2BD2DE9F04180460D4616461F46202002F035
:200A4000C1FD040019D0A220207066706580069820716771079929B1182204F1080002F034
:200A6000E3FD04E0182204F1080002F0DBFD21464046BDE8F04102F091BEBDE8F08170B572
:200A80000D0088B0044616460ED1162200F070F8ADF8086036B96088ADF80A0003A9E06875
:200AA00000F069F802A800E0002001906023002000902A46E188207AFFF7BAFF08B070BD70
:200AC00000B585B059B9ADF80C204288ADF80820C26802B15288ADF80A2002AA00E000227E
:200AE00001926123002200920A46C188007AFFF79FFF05B000BD30B5044689B0E0680D460F
:200B000038B34188ADF80A10622D18D1DFF80C25C18812888A4238BF1146428A008A801AF5
:200B200080B20AB9801C80B290FBF1F2ADF80C2001FB120080B1BDF80C00401C06E0DFF89A
:200B4000E014007F096801EB0010C088ADF80C0002E0062200F00BF86088ADF808002B46B9
:200B600002A80190002200F0C0F909B030BD002102A802F057BD38B504460D461222002119
:200B8000284602F04FFDF4B1DFF89404217F00680901095A2980217F00EB01114988698020
:200BA000DFF878140988A9802188E98061882981A1886981E188A9812189E981217F00EB2E
:200BC0000110C088288231BD2DE9F8435FEA030904468846164645D0012109F051FA002867
:200BE0003ED0DFF84404DFF86413007809780025002E0CBF0D46084600E06D1CEDB28542F3
:200C000026DADFF85023126802EB051779880029F3D14EB120200AF079FFF860C0B120225D
:200C2000002102F0FFFC01E00020F8600020387005F1400078805FB1FC805EB1707A387228
:200C4000DFF8DC030068F968301A0011087703E0152008E087F80880C9F80070002002E001
:200C6000142000E00120BDE8F28338B50446E56855B1E86808B10AF05BFB686908B10AF0BE
:200C800057FB28460AF034FF10220021204602F0C9FCFF20607231BD10B5DFF8842313685A
:200CA000002100E0491CDFF884231278C9B291420AD20C01E25A002AF4D101461022E018F3
:200CC00002F0B2FC002010BD152010BD30B5A14B1B680021002203E0844208BF491C521CAB
:200CE000D14C2478A2420DDA1401E55C002DF6D0E418E468002CEFD0C94D247F2D6805EBB6
:200D00000414E9E7C8B230BD10B5002101E0491CC9B2C64A1278914209DAC14B1B680A01F3
:200D2000D45A002CF3D08442F1D1D01810BD002010BD002201E0521CD2B2BB4909788A4226
:200D40000ADABB49096801EB02114B88002BF2D08342F0D1084670470020704710B5002331
:200D600000E05B1CB34A1278DBB293420DD200F026F8F6D0D4888442F3D1D468002CF0D072
:200D800064888C42EDD1104610BD002010BD10B5002301E05B1CDBB2A34A127893420CDACC
:200DA00000F00DF8F6D01478062C01BF14798C42D4888442EED1104610BD002010BD9C4AC8
:200DC000126802EB03125488002C7047002201E0521CD2B2944909788A420BDA9449096886
:200DE00001EB02114B88002BF2D00B798342EFD10846704700207047B34800204FF47A7205
:200E00004A4300F1090301460FF2150009F01EBD10B50446607A09F0ADFCFF20607210BDCE
:200E200010B504001CBF6088002807D01721204600F005F82046BDE8104016E710BD1CB5A6
:200E40000446207804280AD10020019000900A46E188207A1323FFF7EBFD12220FE00228B4
:200E600018BF062805D100222046FFF708FE142205E0032809D1002200F04AF80622E1880E
:200E800002B0BDE810400520B2E013BD70B5044688B0E668F0680D4618B10AF049FA00205E
:200EA000F060E06878B10188ADF80A104188ADF80C100189ADF80E10418AADF81210008A36
:200EC000ADF8100002E00C22FFF751FE6088ADF80800642302A801902A4600F006F8002033
:200EE00075773082708208B070BD00200090E188207A9DE538B504460D46608807F063FB81
:200F00002A4600F004F82046BDE83240ADE600212046D5E500B583B0ADF80410ADF80620B8
:200F200045490A78531CDBB2002B06BF012301221A460B7001AB414900911621FFF77DF929
:200F40000EBD0000D2460020B0470020D4460020B4480020D846002007212DE9F8438146A3
:200F60000F460025324EDFF8CC8013E0306800EB0514207868B1E08848450AD1072F04BF4B
:200F8000608807F020FB3A46FFF7C1FF2046FFF76CFE6D1C98F80000EDB28542E6D32FBB39
:200FA00016E0306800EB0517387800281CBF787AFF280CD0F888484509D13846FFF728FF72
:200FC00014213846FFF73BFF3846FFF74EFE6D1C15480078EDB28542E3D30425FF2249461B
:200FE000284600F005F86D1C082DF7DBBDE8F18310B5134B0C2404FB0030A0F130046089BD
:2010000088420AD1606840B1FF2A1CBF0178914203D10AF08DF90020606010BD304700208A
:20102000DC460020D0460020D1460020D3460020D8460020D4460020B3480020E10901004A
:20104000B047002080B5001D80B20AF0ADFF28B1BDE804406FF003010AF03EB902BD7047C3
:201060000020704770B5DFF8C8592878062460430AF04CFDDFF8BC19086008B9132070BD97
:201080000020FF2206E03380401C0023F270B2703371C0B22B78984209DA0B6804FB003655
:2010A00000280CBF4FF6FE734FF6FF73EBE70FF2A14008F0ADFD0FF6A90009F0D1FC0FF601
:2010C000E90008F049FF002070BD70B50446208868B160680378426800F073F948B9606858
:2010E00003784268DFF8500900F06DF908B9022070BDA078C01F0A2801D3182070BDDFF8FC
:201100003C59288820B12188C0F58030884201DA012070BD0C200AF0F9FC060001D1132092
:2011200070BD002007E06268298802EB0012401C5181491C298080B221888842F3D300203A
:20114000306008222146301D02F06EFA686810B96E6004E0084601680029FBD1066000204A
:2011600070BD38B502460846DFF8D0184C68002301E02346246894B1A5686D899542F8D16B
:201180002268002B0CBF4A601A6018B10822211D02F04AFA20460AF0ABFC002032BD01200D
:2011A00032BDDFF89C180870704710B5044610461422114203D000F00FF9012204E04A0676
:2011C00008D500F009F9002201462046BDE8104008F097BFC80701D4022010BD002010BDAE
:2011E00070B504460D46A8061E4609D5104600F0F3F801462046BDE87040012208F081BFAF
:20120000882005420FD0104600F0E6F8014605F00802204608F075FF48B1717A41B1317A43
:20122000012904D070BDA80701D4032070BD002070BD7CB50446002000900D460223DFF8E8
:2012400004284FF6FF71012000F02CF8060026D0002304221D21204608F012FE0190E0B165
:2012600070890199ADF800002B460420ADF80200002201200870002001994870FF20019914
:2012800088700199C87000A9204600F007F9040006D001980AF04CF802E0152400E00124B4
:2012A000204676BD2DE9F0478146DFF8900744688A4690461E4600E02468F4B1002700E045
:2012C0007F1CA088BFB28742F6D2A06800EB07156889484528BF8245F2D33EB129786868E9
:2012E0003346424605F0C4F80028E9D0089810B1A16849890180284600E00020BDE8F08714
:20130000F0B5DFF83827536800E01B68D3B19D686E89B042F9DB9F88BA199042F5DA4FF0B4
:20132000000C01E004F1010C1FFA8CF4BC42ECD205EB0412B2F80AE08645F3D101B10E8000
:201340001046F0BD0020F0BD2DE9FC4104460027ADF804704FF6FF786089404515461E46F7
:2013600008D001AA0092401C2378626880B2FFF799FF07462378626800F023F830B9237896
:201380006268DFF8B40600F01EF808B160890CE023786268DFF8B00600F015F858B11FB196
:2013A000BDF80400A84203D0284600F0C7F803E07889404400E0608906B130803846BDE8DF
:2013C000F681DFF88806022105F052B880B500F08AFA00B1008802BD80B500F084FA08B112
:2013E000807802BD102002BD70B5012982B00446154616D0032918D0052925D0072927D0DD
:20140000092929D00B292BD00D292DD00F292FD0112931D0132933D0172934D0192936D002
:2014200039E0294609F01FFB33E007F053F9ADF8000000A9204609F01FFB06002CD1298840
:20144000204608F0C7FC27E0294609F021FB20E0294609F035FB1CE0294609F041FB18E0B0
:20146000294609F053FB14E0294609F05DFB10E0294609F067FB0CE0294609F072FB08E09F
:2014800009F080FB05E0294609F082FB01E009F08CFB064600E00226304676BD2DE9FC415D
:2014A0000D46044616461F4601A900F029FA5FEA00081DD156B100F037F8BDF80000FFF701
:2014C0008BFF00F036F85FEA000811D12946204609F07CFB5FEA00080AD1019CFF2F07D01E
:2014E000A31C1E2221460FF2954008F055FCE7704046BDE8F6817CB50D460446164601A99A
:2015000000F0FEF917280ED04EB1002000F00CF8BDF80000FFF760FF00F00BF818B9294677
:20152000204609F048FB76BDADF8000000A92888E6E601460122204608F0E3BD10B5044695
:20154000FFF744FF08B1611E0C18A0B210BD00002DE9F0470D468046A87800241E2888B0AF
:20156000914614D1404600F0DFF904001EBFA078FE28FF2822D0002000900022AB78E078DC
:20158000414608F0DEFB204600F0E2F916E0122804BF6878012813D0404600F0C5F90400AB
:2015A0001CBF2279002A0BD0100607D4A978404608F023FC207940F08000207100206BE0BC
:2015C000DFF87C743878FF2817D0A978881E172813D20FF27C4A48080AEBC000A0F1080630
:2015E000306800281CBF7068002806D0287810B96A78012A03D1122901D006204CE002A927
:201600000091AB88AA6869783668B047060042D1AA7852080AEBC20202A952F8042C404685
:20162000904706001CD1AB78042B34D002A8009000223878414608F084FB06002BD1A9785D
:2016400002A808F0F3FB10B1002089F80000A878122804BF697801291DD0E4B120711AE063
:201660006878C0B9A8788DF800008DF8046000A9A878042818BF0628BDF80800ADF8020025
:20168000404609F0F0F928B100AB01221621404608F096FB0026304608B0BDE8F087002065
:2016A00070472DE9FE430D46804628886988814200D308B901206AE00021ADF80410029133
:2016C0004FF6FF7900E0401C002100910A466988002380B2FFF7E6FD070034D0BDF804002C
:2016E000002835D100AB4A460521404608F0C8FB040001D111204AE002943878022806D1A2
:2017000001208DF80600BDF80000860824E002208DF806001221BDF8000090FBF1F67889CE
:2017200004F8010B102200F034F81034BDF80400401CADF80400B6B2BDF80400B04202D26A
:2017400078894845BFD1BDF8040080B90A201EE09DF806000128E2D138780228F3D178893B
:2017600004F8010B022200F014F8A41CDEE701A9404609F08DF948B101AB05221621404684
:2017800008F01EFB10B1029809F0D2FD0020BDE8FE837889000A04F8010B2046796801F084
:2017A00043BF10B582B04C880888844200D308B9012016BD00F015F808B90A2016BD0020A3
:2017C00016BD10B582B04C880888844200D308B9012016BD00F005F808B90A2016BD0020C2
:2017E00016BD002200924A1D0B7921465AE510B5044682B0084600A90088FFF781FD08B9DC
:20180000012016BD017ABDF800202046FFF7CDFC16BD70B582B006460D46002401E0641C11
:20182000A4B2A888844229DA286810F8142000EB440000A9407802EB002080B2FFF760FD6B
:2018400050B9286810F814100170286800EB440149784170012076BD017ABDF80020304606
:20186000FFF7A3FC0028DAD0296811F814200A70296801EB440252784A7076BD002076BDEC
:2018800010B50C4682B020886188814200D308B9012016BD23796D48621DFFF794FD08B90B
:2018A000102016BD00200090237961882088621DFFF7F8FC08B90A2016BD002016BD38B541
:2018C00004460D4600A92888FFF71AFD08B9012032BD017ABDF800202B462046FFF780FC9B
:2018E00032BD002070475549496800E0096829B18A6852898242F9D1081D7047002070479A
:2019000010B50C4600F010F860B104B120608078FE2801D1172010BDFF2801D1002010BD98
:20192000162010BD022010BD10B5424A1268002100E0491C3E4B1B78C9B2994206D2062311
:201940004B439C5A8442F4D1981810BD002010BD10B50446A01C08F027FAFF20E07010BDEE
:2019600010B50C46FFF7E0FF30B101794A1C944204BF01F08001017110BD000010B582B079
:2019800004001EBFA078FF28FE280BD0002000901E232188E078172208F0D3F9FE20A07009
:2019A000FF20E07013BD000070B504464FF6FE70844282B036D04FF6FF7651B92046FFF7A8
:2019C000B3FF78BB3046FFF7AFFF05002AD0048073BD012906D12046FFF7A6FF050021D05D
:2019E0002E800BE002291DD10121204608F048FBC0B92046FFF798FF050013D0A878FF28D7
:201A00000ED0FE2807D0002000901E23E8781422214608F096F92846FFF79AFFFF20A87042
:201A20000020287173BD70470448008870470000AE4800209848002044AD010014470020F8
:201A4000354700207CAD01004CAD010040AD0100616001009F16010093600100A3160100B2
:201A600011610100A31701009D610100C3170100FD610100EF1701006D620100EF17010021
:201A8000AB620100131801009D610100811801001D620100BF18010000000000000000001B
:201AA00007630100BF18010087630100E3180100DFF8D4088178FF2900D170472DE9F84F43
:201AC00040684FF4907202FB0104DFF8C008A179006800EB8110009004F20B100178012936
:201AE00008BF417800F09B8004F17400007B022803D104F174010020087304F58C75E98809
:201B000011B1287901F08DFE60892081DFF8800890F80780877A037BC27A417B4744DF19F4
:201B2000D719CE1904F587771FFA86FEBE88761CBE80B7F800C0F444A7F800C0867AB7F86F
:201B400002C066447E80DFF84CC82E681825DEB1DCF8009094F806A005FB0A9A9AF80EA054
:201B600036F81AB0DE4426F81AE094F806E005FB0E9E9EF80EE090F80A9006EB4E0EBEF86C
:201B80004A604E44AEF84A60B8F1000F08BF002A03D1002B08BF002928D02189E2895118AB
:201BA000A18100212174217F012904BF618CE183417889B10121217704F17401897800292E
:201BC00002BF04F17401097B002905D104F17401897E09B9618CE18300992C310A7C3AB36A
:201BE000022A04BFC27A002A1ED120E0E183817A39B100212174217F012905D1618CE183B1
:201C000002E0F988491CF9802189A2898A42CFD1207C08B1052901D0082100E03E21204620
:201C2000BDE8F44F0AF058B9427A0AB102220A74DFF86427C37B1268DB070AD5016918310A
:201C400001612368D960A17902EB411100224A610EE0A37902EB431252690A60DCF80010E3
:201C6000A27905FB021122688968D1600021E183DFF828174969097889074CBF807B812085
:201C800084F87400204600F0C1F901280BD001212046FBF7F8FB00F008F801281CBFBDE83A
:201CA000F14F0AF025B9BDE8F18F2DE9F84FDFF8D806416880784FF4907202FB0014DFF807
:201CC000CC06A179006804F1680500EB81162868006804F18E0708B100200CE0A87B00283A
:201CE00004BF287E002807D13878002804BF207F012801D1608CE0832089E18B0818401C66
:201D0000608120460AF0E4F801281EBFDFF890060078012801D100F073F9287E01280CD1B8
:201D20006A8B618920890AF0CFF830B121896289481C82421AD06A8B0FE03878012815D12F
:201D40007A88618920890AF0BFF800281FBF2189481C6289824209D07A88824206D0501E97
:201D6000608180B20AF04CF9401EE08306F12C0898F8100008B100F043F904F12E07287ED0
:201D8000012801BF688B2189491C884237D1608104F1840120460AF017F9688CE189608479
:201DA00000202077E08360890818A0812189688B0AF026F9B988EA8B01FB00262A8CA88C67
:201DC0008A4204BF3989884202BF698CFB88994207D0000900906B8CA1795208002006F0E3
:201DE000C9FC287F3870288CB880688CF880A88C388120460AF0E4F80220287600E0BE8868
:201E0000E08B2268D2F80CC0401C00FB06F3DFF8946540F6C41000FB03F18C44C2F80CC0C8
:201E20003668DFF884C53678BCF800E0DFF86025B609032E12D1D67BF60748BF4FF0000ED1
:201E40000CD40EF101061FFA86FEBEF1010F12BF668AB8F80E6006F2DC5600E0668A5E43C6
:201E60004FF4C879B6FBF9F6761C6661ACF800E0A3614FF0180CE38B94F80690D4F800E0BE
:201E800084F82030DFF80C351E68DEF80CA00CFB0969D9F80890CEF8109094F80690D4F820
:201EA00014B00CFB0969AAEB0B0AC9F808A094F806900CFB0969D9F80890CEF808904FF031
:201EC000000994F806E00CFB0E6E9EF80C6006F0F00646F002068EF80C60D3F800E0A6791C
:201EE0000CFB06E6A6F80290DFF8AC6494F806903668D4F814B006EB4919D9F814A00AEBBB
:201F00004B0AC9F814A02D7E022D0AD1A57997F800A006EB4515D5F8149000FB0A99C5F8DE
:201F2000149092F80F90A5795FEAC97935D50CFB05E5D5F80890A9F5A869C5F80890A579A9
:201F40000CFB05E5D4F800E0AD68CEF80850691ACEF81010A17906EB41114D6905F5F665E0
:201F60004D61A17906EB41114969C8F80010A179BD88DFF8387406EB411100FB0570C86116
:201F8000DFF82C140978A079012906EB40101EBFDFF80814896A497810E006EB4511BD8825
:201FA00049694543A1F5E661A5F51675A942DED30821204609F090FF01201FE0C17218685F
:201FC000A1790CFB0100216848600020107050709070D070107150719071D0711072507246
:201FE0009072D07210735073D07310610720DFF8C41308702046FBF75BFF0020BDE8F28F5E
:202000000020E0832089401C608170472DE9F84F804608F10605DFF8740329780068DFF84B
:2020200070B300EB811608F1F90908F1E80408F1660706F1250A07E0404609F041FF0128C0
:2020400075D14046FBF7CDFA787D00286FD0787C02282AD0042835D0052848D0062878D09B
:202060000728E9D0092800F0D4800B2800F0AA800C2800F003810D2800F0B9800E2800F08A
:20208000D5800F2800F02281102800F03681112800F04A81122800F00F81FC2847D0FD2834
:2020A00000F05B81FE28CFD15CE1387C012805D19BF8030000280AD0162142E14046FBF734
:2020C0009FFF46E1387C01280DD100F083F900F0328100F083F9287808F1B40208F1AC0110
:2020E00009F0EAFEB0E7404609F0E2FE31E1387C01280FD19BF8020028B1012088F8920099
:20210000002020606060A07A012863D1062100F066F999E798F8E300012809D1404609F0FD
:20212000C3FE012803D10020A0720120387427E108F1E30040780028F9D008F1C30208F19E
:202140009C0108F1D30009F0ABFE012088F8E3007AE7387C012831D100F03CF93AD0A88B4E
:2021600028834046FBF73DFA00F03CF90120B871207A0128607C0DD1C00606D50020707177
:2021800030684108B07908F0C6FA2878002109F083FE0DE0C00606D530684208B31D41467B
:2021A000854808F053FB28780122002109F070FE002020722073E072A07245E7404609F06D
:2021C00063FEC6E0387C012805D1E07A012808BFFC219CD0AFE0404609F052FE01284CD1CE
:2021E0000020E07288F89200012038742CE7387C01280AD100F0EEF806D0002088F89200E5
:2022000000F0F0F80120B87191E0404609F0ACFE9FE0387C012805D100F0DCF8DAD0A88B2F
:2022200028830EE74046FBF707F892E0387C01281BD1207C022805D129784A46002006F069
:20224000DAFAFEE6032807D129784A461A2006F0D2FA00202074F4E600F0B6F80DD12978EB
:202260004A46222006F0C7FA6AE04046FAF7BFFF3874F88A38830120207481E0387C01287A
:2022800014D1607E012808D1A07E012804D100F095F8002009F0F0FDD3E600F095F86FD164
:2022A00000F08CF8222009F0E7FD49E00120E076404609F0DDFD4CE0387C012808BF9BF82F
:2022C00002002AD04046FAF7E3FF42E0387C01280FD1707A012816D0307A01281CD10020F1
:2022E000307200900246014600231A2006F042FAA7E64046FBF712F82BE0387C01280FD1B7
:20230000707A012808D1002070720090024601469AF800000023E9E7B87E0028E8D10AE02A
:202320004046FBF71CF814E0387C01280ED19BF803000028DCD1388B401E388380B2F8B937
:202340002221404609F0C8FD01201AE04046FBF75FF83874F88A388312E09AF8011000F09E
:202360003EF841E79AF801000F2809D100F036F8708A0090338AF289B189287806F01EFB92
:202380000020BDE8F28F0000B04C002014480020704E00208048002084480020C8C701001D
:2023A000894C002020480020B0480020F0DDFFFF864C0020B84C0020E7DC0000208C0090A8
:2023C000E38B227F29787047388B401E388380B2002870479BF8020000287047FC21404692
:2023E000FBF71EB901203870404609F03DBD704710B5817961B3891E22D0491E1AD0891EB7
:2024000012D0491E09D00C3918BF012023D10289817A1046FDF75AFE10BD037A817AC268D2
:202420001846FCF738FF10BD027AC1681046FCF762FF10BD0289C1681046FCF70BFF10BD57
:2024400084688189827B03692046FCF7D9FE10BD8068FCF7ABFF10BD0246907970B1401FFD
:2024600008D0401E18BF01200BD1107A917AD26807F04ABA107AD16807F086BA906807F09F
:20248000A1BA704738B50D46014688790024103818D0C01E11D0401E0BD0401E18BF0124FC
:2024A00014D108898B7ACA681946FEF79DFF04460CE0886807F0BBFB07E00889897A07F03A
:2024C000B0FB02E0087A07F0A9FB2C70204638BD70B50E460146887915460024001F21D00B
:2024E0000C381CD0401E11D0401E0CD0401E012807D9801E16D0801E18BF012414D10A209F
:2025000008E0022410E007F0E5FD03E00889897A07F0B6FDB54935460870012003E0087A4C
:2025200007F03EFE20462870204670BD012070472DE9F84308AF3E788146984615460C46EF
:2025400006F10C0080B201F03DF8071C16D08020387087F8018040F27F637B80A349BC8098
:202560003246BD7107F10C00FE7107F10C03BB6001F05AF84846394601F010F9BDE8F883B6
:202580002DE9FE43044600250120A688A7798DF8055094F802808DF80400311C1BD0491EF6
:2025A00012D0491E0BD0491E05D0491E15D12046FFF71EFF11E02046FFF74EFF0DE0204608
:2025C00001A9FFF75FFF08E020460DF1050101AAFFF77EFF01E0FFF7A9FF8146204601F0F0
:2025E00006F89DF8040040B19DF8050031463A464B4600904046FFF79BFF2846BDE8FE83F7
:2026000002460023921E012A09D9921E04D0802807DB902805DA05E0042902D102E01029ED
:2026200000D002231846704760B1922299498271994B0160242242811988818073230381EC
:2026400000207047022070477CB5401E15460C4616D0401E08D0401E40D0401E3AD0401E3E
:202660002BD0401E19D016E0207A617A0546FFF7C7FF002832D1E268284605F002F97CBD9A
:20268000207A617A0546FFF7BBFF38BBE268284605F04EF97CBD01207CBD4FF6FF70ADF8F7
:2026A0000000FFF7C1F90222ADF8000069464F482A7000F0B9FF00207CBD09F07DF904232A
:2026C000A6492B70020A0A72C871060C4E72040E8C72F0E7A068FFF7A7FF7CBD02207CBDBE
:2026E00030B511280B461546ADF1140D03D9303808280BD93DE0DFE800F0903C3C8B3C3C1A
:20270000867F7B3C736E69645E57524EDFE800F0280D3E3A0537353335C0187A03F0FCF983
:20272000039050B3042203A914E04FF6FF741889ADF80840FF2807DA262805D0272803DAA0
:2027400006F040FFADF80800BDF80800844214D0022202A925482A7000F066FF002065E0A0
:202760001889262809D0272807DA598906F01CFF5CE001205AE000202870022056E003F0D4
:20278000D5F953E0986803F087F94FE09868D96808F038FF4AE0986800F0E3FA46E0188968
:2027A000997A00F087FB41E01889997ADA681B7C00F0CEFB3AE01889997ADA6800F009FB29
:2027C00034E01889997A08F07DFB2FE0D868198900F07FFB2AE09868D96800F01EFB25E00D
:2027E000187A59891A7B00F07FFA1FE043470020187A03F02BF919E0187A597A9A7ADB6860
:2028000003F0EDF812E0187AD96803F095F80DE0187AD96806F012FF08E01869009058691A
:202820000190597A187ADB6809F086F905B030BD80B50B46074618891B3F09D0BF1E18BFEA
:20284000012009D1D9681A7C5B7CFEF727FE80BDD9681A7CFEF74FFE80BD0246CB68088916
:20286000511E13D00A390ED0891E09D0891F05D0891F18BF01200CD108F097B908F082B9F0
:20288000194608F051B9194608F040B9194608F0EAB870470001020008C8010080B5074681
:2028A0000846394670290CDC702933D0891F50D00C3947D0891E3ED0491E35D0491E2DD085
:2028C00009E0713922D0491E1AD0491E12D0491E09D0491E01D0012080BD0289C1681046F9
:2028E00005F0EEFD80BD0389817AC268184605F0B4FD80BD0289C168104605F096FD80BDFA
:20290000027A4189104605F07CFD80BD806805F055FD80BD806805F0E3FD80BD02894189B5
:20292000104605F063FE80BD0389817A8289184605F036FE80BD038941898289184605F0A4
:2029400004FE80BD0389C168027C184605F07FFE80BD008905F037FE80BDC0463C4700205F
:2029600010B50446C4F3C21048B1401E1DD0401E16D0401E0FD0401E08D0401E01D0012074
:2029800010BD04F07F00FFF75FFE10BD04F07F00FFF7A6FE10BD04F07F00FFF749FF10BD7F
:2029A00004F07F00FFF759FF10BD04F07F00FFF775FF10BD42F20702824236DB824200F019
:2029C000E58041F2020282421BDB824200F0EC80A0F21D40002800F0F780A0F2E4700028F5
:2029E00000F0EF80801E00F0EA802A3800F0E380363800F0DD80A0F29E30002800F0D68042
:202A00004DE0521C801A00F0CD80801F00F0C880B0F57F7000F0C180A0F6FC30002800F0CE
:202A2000B980801E00F0B48039E01032824216DB824200F09580083A801A00F0A580401E73
:202A400000F0A080401E00F09980401E00F09280C01E00F08C80401E00F086801FE0521D03
:202A6000801A7BD0401E76D0401E6ED0401E6AD04DF6E232801A1F2811D8DFE800F0615E02
:202A800010105A5754504E4B4946434110103E103B3733102F291026221F1C1018120120AC
:202AA00070478868CB680A69194606F032BA087A897A09F0D5B9087A06F01BBB088906F0A7
:202AC0002FBB087A498909F0C7B9087A09F0C0B908898B7A8A89194606F034BB087A49890A
:202AE00009F0B2B90889C96809F0AAB90889897A09F0A2B9088909F09BB9087A09F094B9C6
:202B000009F08EB9088909F087B9886809F080B909F07AB9087A09F073B909F06DB9087A15
:202B2000897A09F065B9087A09F05EB9886809F057B98868C96809F04FB9087A09F048B952
:202B4000087A09F041B909F03BB9087A4B7A8A7A194606F097BA087A06F09DBA09F02CB975
:202B60008868C96809F024B9088906F076BA088909F01AB9087AC96809F012B9087AC96820
:202B800009F00AB909F004B909F0FEB809F0F8B809F0F2B8886806F0D7BA088909F0E8B827
:202BA00009F0E2B809F0DCB806F0A9B906F0E8BA886806F079BA0889897A09F0CDB806F0E4
:202BC0008DB9886809F0C4B8088909F0BDB870472DE9FE430446012000253F218DF80400C4
:202BE000A679A778A0888DF805508046B1EBA82F02D1C8F3C21119B92146FFF7DBFE05E00E
:202C000021460DF1050201ABFFF7AAFE8146204600F0EDFC9DF8040040B19DF8050041464D
:202C200032464B4600903846FFF782FC2846BDE8FE83F8B50C46E00BC00308BF002027D0EA
:202C40002848007800F016FD071C1ED0234D2968012649B1B1F1FF3F06D02148007800F0CF
:202C60009DFD4FF0FF3028603878813805D0401E07D13846FFF784FC02E03846FFF7A8FF5F
:202C8000064616B1384600F0B2FC84F40044A0B2F8BD10B50C4601462046491E07D0491ED9
:202CA00002D008F02DFB10BDFEF7CCF910BD1946029B14460246204607F0E2F810BD10B567
:202CC00004460846012C114602D107F015F910BD08F02EFB10BD0349087070471C48002046
:202CE000B84800203C4700202DE9F04104468846122740464FF6FE7188421646DFF8A85842
:202D000008D1A86950B30268100027D041462046904720E04FF6FF71884212D1A86938B135
:202D20000268100004D0414620469047070005D03146204600F089FA07000FD12C706E70F4
:202D40000CE007F06FF948B10078A04205D13146404608F0F5FF074600E003273846BDE89C
:202D6000F08110B504462389E288A188608884B006F096F808B9022029E02088012107F047
:202D80007FF908B9142022E0208807F08AF9042812D1DFF8140881894FF6FF72914218BF36
:202DA000112014D12188818161888180A188C180E1880181218941810020029001902089BB
:202DC0000090E388A2886188208806F081F904B010BD70B50C46DFF8D4170978022918BF90
:202DE0000129154601D1122070BD0DB9022070BD07F018F9060001D1142070BD1CB1307951
:202E000040F0020030711022294606F1140000F00BFC28697062002070BDF8B506000C4687
:202E200001D10220F2BD308807F0FCF8050001D11420F2BDDFF874070078022818BF01289E
:202E400003D0287B082802D10CB11220F2BDDFF85877786908B11120F2BD2C2008F056FEA3
:202E6000786108B91320F2BD2C2200F0A3FA7869318841801C22311D001D00F0D5FB796955
:202E800002200870287B7969328808280CBF012000200B1DDFF81817097800F05FFF0646D4
:202EA0001CB12146284601F01BF90EB100F042FA3046F2BD38B504460D4607F0B3F808B96E
:202EC000142032BD8DF8005000A9204601F042F832BD38B5002298B101230624251815F8E1
:202EE000015C303D0A2D0BD203FB05220A25641E6B43E4B2002CF1D11046BDE8344001E09C
:202F0000022032BD30B505460C4685B0204607F089F808B9122019E0DFF89806854228BFFC
:202F2000022013D21022002100A800F07BFB280A8DF801008DF80050280C8DF8020021467A
:202F4000280E8DF8030000A800F04BFF05B030BD2DE9F0418046DFF854060078022814BF7C
:202F60000128122082B00C4615461E462BD00DB9022028E0404607F055F8070008BF1420FC
:202F800021D0B86A08B108F0B3FD1C21284600F093FE0100B96208BF132014D0387B0828B4
:202FA00009D146B1887E009001F112030A8A404601F0C0F800E00020397941F004010CB13B
:202FC00041F002013971BDE8F6812DE9F0410D4607F028F804001ED0656200F0EEF9C5B23F
:202FE00005B92578666A94F80580102000F0EAFA070010D0D0203870062200207870A11D24
:203000000920B87087F80380381D00F00DFBFE60394628461EE0BDE8F0812DE9F041044620
:203020000D4690461F460E2000F0CCFA06000FD0D020307006220020707041460C20B070AE
:20304000B580B01D00F0F0FA37733146204601E0BDE8F081BDE8F04100F0A0BBF0B504004C
:2030600087B051D0A079DFF84055002828690CBF0826042608B9DFF840050778DFF83C0523
:20308000006820B1416808001CBF00208847E07904F1080106F0A6FB217DE07105910246C1
:2030A000618A049104F10803218A0391E18902910196A18800913946E07800F063F8E07889
:2030C00070B9172003900122E0890290019604F108000090E379A188384606F04CFFE07027
:2030E000286908B100F03EF9287868B1697800F0ACF848B1E378312B04D0A2882978184684
:2031000000F06EF80020287007B0F0BDE0B50021029101918189009143890289C18880881F
:2031200005F06EFF07BD70B505460026A88806F079FF18B10678A88806F04AFFDFF86844FC
:20314000207838B1864205D1617800F07EF840B1002020702EB1AB79AA88A878314600F0B4
:203160003FF8606908B100F0E5F8A88806F099FF042802BFA888A189884204BF4FF6FF7083
:20318000A08170BD2DE9F0410646884617461C46162000F017FA050020D0D02028706E702F
:2031A0000520A870EF702CB106222146281D00F03BFA04E006220021281D00F033FA069870
:2031C00068812946079828730898E881099828820A9868820B98287540463BE7BDE8F0817F
:2031E000F8B504460D4616461F46082000F0EAF948B1D021017044700621817086808771A4
:2032000001462846DCE0F1BD2DE9F04180460D4616461F460C2000F0D5F9040013D028462F
:2032200006F000FF08B9DFF890030078D021217084F801800721A170A580E680278106996C
:203240006181214606E7BDE8F08110B50C4606F0FDFE28B12146BDE81040408808F070BDF8
:20326000122010BD2DE9F84F0746894692461C46484606F0D7FE5FEA000B1EBFCA4D696929
:20328000002955D00A6A182002B134208A6A02B1143004B11C30496A01B1163080B200F074
:2032A00091F9060044D0182200F084F800F085F85FEA000808BF9BF80080D02030707770B5
:2032C0000A20B070A6F8049086F806A006F118076969086A38B1B7603846096A00F11C07EF
:2032E0001C2200F0A1F96969886A38B1F7603846896A00F11407142200F096F93CB137614B
:20330000384600F11C071C22214600F08DF96869416A29B177611622416A384600F084F904
:2033200031465FFA88F000F039FABDE8F14F01E0BDE8F18F10B59C4C606990B1006A08B15D
:2033400008F0D6FB6069406A08B108F0D1FB6069806A08B108F0CCFB606908F0C9FB0020E4
:20336000606110BD10B5904C206918B108F0C0FB0020206110BDF8B504460D46284606F0FD
:2033800051FE060015D000F018F8070008BF3778062000F017F906000BD0062200F00AF855
:2033A000D020307074700E20B070B5803146F8B206E0F1BD002100F035B9262006F002B96B
:2033C000BDE8F44000F0EAB92DE9F84305460E4617469846304606F025FE5FEA000921D084
:2033E000102000F0EFF804001CD01022FFF7E2FFFFF7E3FF08B999F80000D021217065704C
:203400000F21A170A680277284F80980C0B20899A1720999E1720A99E1602146BDE8F44365
:2034200000F0BCB9BDE8F1832DE9F0410746884606F0F8FD040022D00E2000F0C3F80500ED
:203440001DD0FFF7BAFF060008BF2678D0202870062200206870A11D0B20A870E81C00F0C8
:20346000E3F818F0010118BF012129736F8118F0020118BF01216973F0B22946EAE5BDE87D
:20348000F0812DE9F14F90460D469946404606F0C9FD07000A9EDDF82CA0DDF830B00D9C6D
:2034A0003ED09DF8000000283AD1387940F010005FEA49714CBF40F0020000F0FD00002EEA
:2034C00008BFBAF1000F08D1BBF1000F08BF002C03D100F0FB00387122E040F0040038719D
:2034E0003CB1206978621022214607F1140000F09BF83EB135B9B86A08B108F0F9FA1C2174
:2035000030460AE0BAF1000F0AD0012D08D1B86A08B108F0EDFA1C21504600F0CDFBB86251
:20352000214D6869002839D06EB1006A20B91C2008F0ECFA696908626869006A18B11C2221
:20354000314600F071F8BBF1000F0ED06869406A20B9162008F0DAFA696948626869406AB5
:2035600018B11622594600F05FF874B16869806A20B9142008F0CAFA696988626869806A44
:2035800018B11422214600F04FF89DF8000053464A46414601B0BDE8F04F63E6BDE8F18F46
:2035A00007490860704700009446002061460020F046002040420F0060460020F4460020D4
:2035C0009048002010B5041C05D004F10C0080B208F09CFA08B9002010BD002101600481C3
:2035E000FF2383720C3010BDBD480078704708B5002808BF052009D010F8021CFF2918BFA8
:20360000042003D10C3808F073FA002008BD10B580F08004082C01DB00F064F9B0482830BE
:20362000005D10BD08F033B8034610461A4628B111F8013B401E02F8013BF9D110467047F5
:2036400070B5B94C054620680E468047C04A1168A94219BF55F80C1C46F80C1C55F80C1CBC
:203660001160FF2605F8026C002145F80C1C6168884770BD2DE9F041AB4D0646286880471C
:203680008046B348006800273C46844212D010F8021C8E4208D134B160B130464FF40041F1
:2036A00000F0BFF80BE0044604B9074650F80C0C0028ECD130464FF4004100F0FCF81CB134
:2036C00020463946FFF7BCFF6968404688472046BDE8F08110B5401E491E4AB111F8013FE4
:2036E00010F8014FA34218BF002002D1521EF5D1012010BD38B5C24C0546241D20688047C9
:203700000021934A45F80C1C116811B9156006E0114651F80C2C002AFAD141F80C5C616871
:20372000884738BD38B5B64C0546606880476C4A916845F80C1CA1689560884738BD70B501
:20374000164605460C1C08BF052525D035F07F0001D000F0C7F8092DA8BF032507DA54F89E
:203760000C0C18B914F8020CFF2804D005252046FFF73DFF10E0012E04F8025C03D02046D7
:20378000FFF7B8FF02E02046FFF7CCFF28464FF4004100F046F80025284670BD70B5024626
:2037A0000D4632F07F0004D110460022FFF7C7FF70BDFFF719FF4A494C78AE1EFF2802D0B5
:2037C000496A4018447AFF2C02D100F08BF80DE01046FFF71CFF01462A46FF20307020467F
:2037E00000F008F820B12846FFF701FF012070BD002070BD00B5ADF1140DADF804000823C1
:20380000ADF80030ADF8061000208DF8080006237B4803920168ADF802306846884705B078
:2038200000BDF8B506460C4636F07F0014D1092E10DA734D68688047B849096831F81620AD
:20384000144321F81640A9688847B548006800F081F82EE00320F8BD0420FFF7B3FE071C20
:2038600008BF042026D04FF6FF7038807C80FFF7BBFE1B494C78BD1EFF2802D0496A401849
:20388000447AFF2C06D13846FFF7B1FE00F02AF80120F8BD3046FFF7BAFE01463A46FF2053
:2038A00028702046FFF7A6FF18B13846FFF79FFEEEE70020F8BD70B506460D46092E0DDA09
:2038C000984C6068804795490A6832F81610A94322F81610A1688847002070BD032070BD34
:2038E0001446002008B50820ADF800000C20ADF802008C4801686846884708BD8A4A08B5E1
:20390000002112F8013FFF2B04D1107041F08001C8B208BD9842F9D0491C0829F1D3FFF7D9
